:020000040800F2
:100000002007002089010008990400089B040008CB
:100010009F040008A3040008A704000800000000D3
:10002000000000000000000000000000AB04000819
:10003000AD04000800000000AF040008B10400088F
:10004000A3010008A3010008A3010008A301000800
:10005000A3010008A3010008A3010008A3010008F0
:10006000A3010008A3010008A3010008A3010008E0
:10007000A3010008A3010008A3010008A3010008D0
:10008000A3010008A3010008A3010008A3010008C0
:10009000A3010008A3010008A3010008A3010008B0
:1000A000A3010008A3010008A3010008A3010008A0
:1000B0008B060008A3010008A3010008A3010008A3
:1000C000A3010008A3010008A3010008A301000880
:1000D000A3010008A3010008A3010008A301000870
:1000E000A3010008A3010008A301000800F002F822
:1000F00000F03AF80AA090E8000C82448344AAF188
:100100000107DA4501D100F02FF8AFF2090EBAE885
:100110000F0013F0010F18BFFB1A43F0010318473B
:100120001491000034910000103A24BF78C878C1BF
:10013000FAD8520724BF30C830C144BF04680C60ED
:10014000704700000023002400250026103A28BF35
:1001500078C1FBD8520728BF30C148BF0B60704739
:100160001FB51FBD10B510BD09F02DF81146FFF7E2
:10017000F7FF00F079FB09F04BF803B4FFF7F2FF4B
:1001800003BC09F04FF800000948804709480047C0
:10019000FEE7FEE7FEE7FEE7FEE7FEE7FEE7FEE737
:1001A000FEE7FEE704480549054A064B7047000094
:1001B00091020008ED000008200100202007002027
:1001C000200300202003002000210020674A12683D
:1001D00042F48032654B1A6000BF644A126802F430
:1001E0000030491C10B9B1F5A06FF6D15F4A126812
:1001F00012F4003F01D0012000E00020012842D18C
:100200005B4A126842F01002594B1A601A46126893
:1002100022F003021A601A46126842F002021A60C3
:10022000524A5268514B5A601A4652685A601A46EE
:10023000526842F480625A601A46526822F47C1274
:100240005A601A46526842F4E8125A601A46126816
:1002500042F080721A6000BF444A126812F0007FB8
:10026000FAD0424A526822F00302404B5A601A46C2
:10027000526842F002025A6000BF3C4A526802F0E3
:100280000C02082AF9D1704710B5FFF79DFF10BD89
:1002900010B53648006840F001003449086008464F
:1002A000406834490840314948600846006832498E
:1002B00008402E4908600846006820F48020086045
:1002C0000846406820F4FE0048604FF41F00886034
:1002D000FFF7DAFF4FF000602849086010BD10B545
:1002E000002100200022214B5B6803F00C0121B1AA
:1002F000042906D0082928D107E0214B214C23608E
:1003000027E01F4B1F4C236023E0184B5B6803F46E
:100310007010164B5B6803F48032022303EB9040AD
:1003200022B9194B4343174C23600DE00F4B5B6818
:1003300013F4003F04D0144B4343124C236003E0FA
:100340000F4B43430F4C236003E00D4B0D4C2360D8
:1003500000BF00BF054B5B68C3F303130B4CE15CAC
:10036000084B1B68CB40074C236010BD00100240B7
:10037000002002400000FFF8FFFFF6FE08ED00E05D
:1003800000127A000000002000093D000400002057
:1003900010B500BF3C49896941F001013A4A9161B9
:1003A0001146896901F0010000BF00BF032000F081
:1003B00021FC002211466FF00B0000F02DFC002202
:1003C00011466FF00A0000F027FC002211466FF082
:1003D000090000F021FC00221146501F00F01CFC17
:1003E00000221146101F00F017FC00221146901E3B
:1003F00000F012FC00221146501E00F00DFC00BF60
:100400002249486820F0E06040F00070486000BF7A
:1004100010BD1FB504461E492068884220D14FF404
:100420004070009012200190032003906946194803
:1004300001F032F900BF1549486840F0E06040F033
:100440000200486000BF00BF0F49C96941F40011B4
:100450000D4AD1611146C96901F4001000BF00BF07
:100460001FBD10B504460A49206888420AD10648D3
:10047000C06920F400100449C8614FF44071054878
:1004800001F086FA10BD000000100240000001409B
:1004900000540040000C0140704700BFFEE700BF61
:1004A000FEE700BFFEE700BFFEE7704770477047FA
:1004B00010B500F0F7FA00F0DBFC10BD70B5014696
:1004C000002201207F4D2D687F4EB5FBF6F505FB20
:1004D00001F213467D4DA94201D9012500E0002516
:1004E0002C4604BB12E000E0401CB3FBF0F5B5F570
:1004F000803FF9D2B3FBF0F500FB1535002DF3D1A9
:10050000B3FBF0F2B0F5803F00D302E0B2F5803FDC
:10051000E9D200BFB0F5803F05D2451E4FF08046BE
:10052000B562551EF56270BD70B50146002201200E
:10053000644D2D684FF47A76B5FBF6F505FB01F2B4
:10054000134642F21075A94201D9012500E00025A9
:100550002C4604BB12E000E0401CB3FBF0F5B5F5FF
:10056000803FF9D2B3FBF0F500FB1535002DF3D138
:10057000B3FBF0F2B0F5803F00D302E0B2F5803F6C
:10058000E9D200BFB0F5803F05D2451E4FF080464E
:10059000B562551EF56270BD70B50146002201209E
:1005A000484D2D6805FB01F213460A2901D90125A2
:1005B00000E000252C4604BB12E000E0401CB3FB29
:1005C000F0F5B5F5803FF9D2B3FBF0F500FB15353A
:1005D000002DF3D1B3FBF0F2B0F5803F00D302E081
:1005E000B2F5803FE9D200BFB0F5803F05D2451E8D
:1005F0004FF08046B562551EF56270BD30B50546B8
:100600000C463348C06940F001003149C8611CB94B
:100610002846FFF7C1FF0AE0012C03D12846FFF767
:1006200083FF04E0022C02D12846FFF747FF4FF07A
:100630008040C06840F001004FF08041C86008462B
:10064000006840F00100086030BD22480068704733
:1006500000B50146FFF7F9FF024600BFFFF7F5FFBF
:10066000801A01EB4103C3EBC113B0EBC30FF5D20A
:1006700000BD00B50146FFF7E8FF024600BFFFF7E7
:10068000E4FF801A8842FAD200BD12480068401C7C
:10069000104908604FF08040006920F001004FF0E1
:1006A000804108617047074A1268D208064BB2FBC6
:1006B000F3F202FB00F100BF00BF0A00A1F101014B
:1006C000FAD170470000002040420F008096980049
:1006D000001002401C000020B448806940F0040073
:1006E000B24988610846806940F008008861084680
:1006F000806940F0100088610846806940F0200061
:1007000088610846C06940F40010C861A8480068C4
:1007100040F0FF00A6490860A648406840F002008B
:10072000A4494860A448006840F40040A249086019
:100730000846006820F4004008602420091D086075
:1007400025209D4920310860B420091F0860002041
:100750009949086008149849083108600020091D6B
:1007600008609548006840F0010093490860002047
:1007700092490864202081F83D000020086381F838
:100780003E0081F83C00704700BFFEE700B587B02F
:1007900000200390049005900690019002908848F4
:1007A00088490860472048600021864881604FF6EC
:1007B000FE71C160002101614161816105F012FAA1
:1007C00020B14FF4D07180A0FFF7DEFF4FF48050CE
:1007D000039003A97B4807F0A2FB20B140F2A511CA
:1007E00079A0FFF7D1FF00200190029001A9754880
:1007F00008F04EFB20B140F2AB1173A0FFF7C4FF2D
:1008000007B000BD00BF6949896941F02001674A0E
:1008100091611146896901F0200000BF00BF00BF4F
:100820001146896941F0040191611146896901F01D
:10083000040000BF00BF00BF1146896941F00801F4
:1008400091611146896901F0080000BF00BF00BF37
:100850001146896941F0100191611146896901F0E1
:10086000100000BF00BF704700F0FBF8FFF7CAFFA1
:10087000FFF78CFF534805F0F3F9FFF72DFF08F061
:1008800048FB08F0E4FB0021084608F055FC51A0A5
:1008900008F047FC0121002008F04EFC51A008F0B0
:1008A00040FC0221002008F047FC52A008F039FC6F
:1008B0000321002008F040FC52A008F032FC08E0C0
:1008C0004FF40051544801F000F94FF4FA7000F071
:1008D0000AF9F5E710B590B00120069000040790E2
:1008E0000020089001200A9002200D90C1030E9173
:1008F0004FF4E0110F9106A804F037FD18B1BA21AA
:1009000031A0FFF741FF0F2001900220029000204C
:1009100003904FF48060049000200590022101A80C
:1009200004F06CFF18B1C82127A0FFF72DFF05F0D8
:100930005FF84FF47A71B0FBF1F4204600F0E3F970
:10094000042000F080FA00221146501E00F064F9E5
:1009500010B010BD10B51848184908602F484860FD
:10096000002116488160C1604FF48041016100217F
:1009700041618161C161016201F0DBF818B1F321CD
:1009800011A0FFF701FF10BD0D4A016891420CD183
:1009900000BF064A926942F40062044B9A611A460B
:1009A000926902F4006100BF00BF7047001002406E
:1009B000040C014000000140005400402C000020C5
:1009C000002C0140800000205372635C6D61696EF1
:1009D0002E630000566F726E616D653A2041726D34
:1009E000656C00004E616D653A205473616E6E61F6
:1009F0006E67000053746164743A205369656765DB
:100A00006E0000004C616E643A2044657574736337
:100A1000686C616E6400000000100140A086010057
:100A2000704770B50446624800784FF47A71B1FBA4
:100A3000F0F060490968B1FBF0F5284600F063F971
:100A400008B1012070BD102C07D200222146501E93
:100A500000F0E2F85848046001E00120F2E70020CD
:100A6000F0E710B55548006840F0100053490860A1
:100A7000032000F0BFF80020FFF7D3FFFFF788FC4A
:100A8000002010BD704710B54FF0FF304C49C860D2
:100A900000200861401EC8600020C860FFF7F2FF18
:100AA000002010BD4748006841490978084445497D
:100AB000086070474348006870473F4800687047C7
:100AC00070B5044600253A480078A04206D0384860
:100AD000047039480068FFF7A4FF0546284670BD3A
:100AE00033480078704770B50446FFF7E3FF0646C9
:100AF0002546681C02D02E480078054400BFFFF749
:100B0000D9FF801BA842FAD370BD4FF0E0200069E6
:100B100020F002004FF0E021086170474FF0E02024
:100B2000006940F002004FF0E0210861704726485C
:100B3000704726480068000C704724480068C0F3DE
:100B40000B0070472148406840F001001F49486091
:100B500070471E48406820F001001C4948607047FB
:100B60001A48406840F0020018494860704717482A
:100B7000406820F0020015494860704713484068FB
:100B800040F004001149486070471048406820F068
:100B900004000E49486070470D49096801600C491E
:100BA000091D096841600A49083109688160704778
:100BB000240000200000002020000020002002402F
:100BC000001002402800002000020101002004E083
:100BD000E8F7FF1F10B5002807DA0A07140EA94A24
:100BE00000F00F031B1FD45403E00A07130EA64A9C
:100BF000135410BD00BF00F00702A24B0C3B196854
:100C00004FF6FF031940A14B0B4343EA02219D4BD2
:100C10000C3B196000BF70472DE9F05F80460D4620
:100C20001646002700F028F9074639462A4633467B
:100C300001F00700C0F1070ABAF1040F02D94FF022
:100C4000040A01E0C0F1070AD14600F1040ABAF132
:100C5000070F02D24FF0000A01E0A0F1030AD446C8
:100C60004FF0010A0AFA09FAAAF1010A0AEA020A8D
:100C70000AFA0CFA4FF0010B0BFA0CFBABF1010B6B
:100C80000BEA030B4AEA0B0421464046FFF7A2FF9A
:100C9000BDE8F09F00BF00F01F0201219140420912
:100CA0004FF0E02303EB8202C2F8001100BF70474F
:100CB00000BF00F01F0201219140754A430942F82C
:100CC000231000BF704700BF00BF00BF00BF00BFC0
:100CD000BFF34F8F00BF00BF00BF6A480C380068E9
:100CE00000F4E06069490843001D66490C3908605A
:100CF00000BF00BF00BFBFF34F8F00BF00BF00BFEA
:100D000000BF00BFFDE770B504462546681EB0F180
:100D1000807F01D301200FE0681E4FF0E021486181
:100D20000F214FF0FF30FFF755FF00204FF0E0217B
:100D3000886107200861002070BD10B500F09CF8A4
:100D400010BD2DE9F04304462046002808DA4D4F37
:100D500000F00F0CACF1040C17F80C703F0902E026
:100D6000494F3F5C3F093D460E4606F00700C0F183
:100D70000708B8F1040F02D94FF0040801E0C0F1F0
:100D80000708C44600F10408B8F1070F02D24FF07B
:100D9000000801E0A0F10308474625FA07F84FF0E4
:100DA000010909FA0CF9A9F1010908EA0908C2F8D0
:100DB00000804FF0010808FA07F8A8F1010808EAD6
:100DC0000508C3F8008000BFBDE8F08300BF00F055
:100DD0001F02012191402E4A8032430942F823101C
:100DE00000BF704710B501460846294A80324309C2
:100DF00052F8232000F01F040123A3401A4201D01F
:100E0000012200E00022104610BD00BF00F01F02CA
:100E1000012191401F4A430942F8231000BF704747
:100E200010B5014608461B4A8032430952F8232078
:100E300000F01F040123A3401A4201D0012200E068
:100E40000022104610BD042808D14FF0E0210969A6
:100E500041F004014FF0E022116107E04FF0E02182
:100E6000096921F004014FF0E022116170477047D9
:100E700010B5FFF7FCFF10BD02480C380068C0F346
:100E80000220704718ED00E000E400E00000FA05E1
:100E900080E100E080E200E00146002209B9012083
:100EA0007047F94B0868C01A1423B0FBF3F08000B8
:100EB0000864F5480838C863022081F821000868F2
:100EC000026843F6F0708243D1E901031843CB680E
:100ED00018430B6918434B6918438B691843CB6956
:100EE000184302430868026000208862C8620863F1
:100EF00048638863012081F82100002081F82000E8
:100F000000BFCDE7014609B90120704708680068B5
:100F100020F001000A68106000200A6810600A686A
:100F200050600A6890600A68D060D74A0868801AE2
:100F30001422B0FBF2F080000864D3480838C8637C
:100F400091F8402001209040CA6B506000208863D7
:100F500081F8210000BF81F8200000BF00BFD4E766
:100F600030B590F840500124AC40C56B6C6004680B
:100F700063604468102C04D10468A2600468E160D6
:100F800003E00468A1600468E26030BD2DE9F0412F
:100F900004460D4616461F464FF0000800BF94F861
:100FA0002000012802D10220BDE8F081012084F850
:100FB000200000BF94F82100012817D1022084F8F6
:100FC00021000020A0632068006820F00100216853
:100FD00008603B46324629462046FFF7C1FF20689D
:100FE000006840F001002168086006E000BF0020B2
:100FF00084F8200000BF4FF002084046D4E72DE9F6
:10100000F04104460D4616461F464FF0000800BF4B
:1010100094F82000012802D10220BDE8F0810120CF
:1010200084F8200000BF94F8210001282CD1022070
:1010300084F821000020A0632068006820F00100EF
:10104000216808603B46324629462046FFF788FF64
:10105000E06A30B12068006840F00E002168086046
:101060000BE02068006820F0040021680860206818
:10107000006840F00A00216808602068006840F0BD
:1010800001002168086006E000BF002084F820000D
:1010900000BF4FF002084046BFE7014600200A6843
:1010A000126822F00E020B681A600A68126822F0B9
:1010B00001020B681A6091F8403001229A40CB6B14
:1010C0005A60012281F8212000BF002281F82020EF
:1010D00000BF704770B50446002594F8210002282F
:1010E00003D00420A063012548E02068006820F0B8
:1010F0000E00216808602068006820F00100216867
:10110000086061492068884201D1012026E05E49DB
:1011100014312068884201D110201FE05A4928313B
:101120002068884201D1801518E057493C31206879
:10113000884201D1801411E053495031206888421F
:1011400002D14FF4803009E04F4964312068884271
:1011500002D14FF4801001E04FF080704A49083905
:101160004860012084F8210000BF002084F820009E
:1011700000BF606B10B12046616B8847284670BD88
:101180002DE9F04104460E4615464FF0000894F84C
:101190002100022809D00420A06300BF002084F8A9
:1011A000200000BF0120BDE8F0812068006810F039
:1011B000200F04D04FF48070A0630120F3E77EBBC2
:1011C00031492068884201D1022027E02E4914319C
:1011D0002068884201D1202020E02B492831206856
:1011E000884201D1401519E027493C3120688842E6
:1011F00002D14FF4005011E0234950312068884259
:1012000002D14FF4003009E01F4964312068884260
:1012100002D14FF4001001E04FF0007007462FE0BC
:10122000FFE719492068884201D1042027E01649C8
:1012300014312068884201D1402020E01249283131
:101240002068884201D1001519E00F493C3120681F
:10125000884202D14FF4804011E00B4950312068A0
:10126000884202D14FF4802009E0074964312068A8
:10127000884202D14FF4800001E04FF080600746C1
:10128000FFF718FC80465FE008000240F84800685D
:10129000F74A08322168914201D1082127E0F44A37
:1012A0001C322168914201D1802120E0F04A303285
:1012B0002168914201D1C91419E0ED4A44322168F4
:1012C000914202D14FF4004111E0E94A58322168BD
:1012D000914202D14FF4002109E0E54A6C322168C5
:1012E000914202D14FF4000101E04FF00061084249
:1012F00013D094F8401001208840E16B4860A06B47
:1013000040F00100A063012084F8210000BF00200C
:1013100084F8200000BF012045E7681C14D02DB1DF
:10132000FFF7C8FBA0EB0800A8420DD9A06B40F066
:101330002000A063012084F8210000BF002084F871
:10134000200000BF01202EE7C948006838429DD028
:10135000A6BBC74908312068884201D1022027E096
:10136000C3491C312068884201D1202020E0C049B7
:1013700030312068884201D1401519E0BC49443120
:101380002068884202D14FF4005011E0B84958312A
:101390002068884202D14FF4003009E0B4496C3132
:1013A0002068884202D14FF4001001E04FF0007035
:1013B000AF494860012084F8210031E0FFE7AC49E3
:1013C00008312068884201D1042027E0A8491C3157
:1013D0002068884201D1402020E0A54930312068B2
:1013E000884201D1001519E0A149443120688842A2
:1013F00002D14FF4804011E09D4958312068884265
:1014000002D14FF4802009E099496C31206888426C
:1014100002D14FF4800001E04FF0806094494860B1
:1014200000BF002084F8200000BF00BFBBE670B5FD
:101430000446E06B05682068066894F840100420B4
:101440008840284245D016F0040F42D0206800683A
:1014500010F0200F05D12068006820F004002168FA
:101460000860834908312068884201D1042027E0C0
:101470007F491C312068884201D1402020E07C490E
:1014800030312068884201D1001519E07849443193
:101490002068884202D14FF4804011E074495831ED
:1014A0002068884202D14FF4802009E070496C31F5
:1014B0002068884202D14FF4800001E04FF0806044
:1014C0006B494860E06A002879D02046E16A884785
:1014D00075E094F840100220884028424CD016F065
:1014E000020F49D02068006810F0200F08D1206852
:1014F000006820F00A0021680860012084F82100BB
:101500005B4908312068884201D1022027E0584910
:101510001C312068884201D1202020E0544930311C
:101520002068884201D1401519E0514944312068B2
:10153000884202D14FF4005011E04D4958312068E3
:10154000884202D14FF4003009E049496C312068EB
:10155000884202D14FF4001001E04FF0007044497E
:10156000486000BF002084F8200000BFA06A30B3AC
:101570002046A16A884722E094F84010082088405D
:1015800028421CD016F0080F19D02068006820F0FF
:101590000E002168086094F8401001208840E16B3B
:1015A00048600120A06384F8210000BF002084F877
:1015B000200000BF206B10B12046216B884770BD12
:1015C00010B50346002400BF93F82000012801D184
:1015D000022010BD012083F8200000BF93F82100F5
:1015E000012812D131B1012906D0022906D00329E0
:1015F00008D105E09A6207E0DA6205E01A6303E0C9
:101600005A6301E0012400BF00E0012400BF002074
:1016100083F8200000BF2046DBE710B50246002417
:1016200000BF92F82000012801D1022010BD012046
:1016300082F8200000BF92F8210001281DD1052961
:1016400018D2DFE801F00306090C0F0000209062B9
:1016500012E00020D0620FE0002010630CE00020B8
:10166000506309E000209062D0621063506303E091
:1016700000000240012400BF00E0012400BF002060
:1016800082F8200000BF2046D0E7014691F82100F3
:1016900070470146886B70472DE9F04703460024E8
:1016A000002000258446002700226CE14FF001084D
:1016B00008FA02F4D1F8008008EA0400A0427DD1C3
:1016C000DFF84CA4D1F80480A8EB0A09D0453AD041
:1016D00014DCB8F1030F50D009DCB8F1000F31D0A1
:1016E000B8F1010F1CD0B8F1020F49D120E0B8F1D8
:1016F000110F18D0B8F1120F42D11EE0B9F5881FB2
:1017000025D006DCB9F5803F20D0B9F5801F37D150
:101710001AE0B9F5001F18D0B9F5041F30D117E051
:10172000D1F80CC02DE0D1F80C8008F1040C28E0B1
:10173000D1F80C8008F1080C23E0D1F80C8008F1F6
:101740000C0C1EE000BF00BF00BF00BF00BF00BF09
:10175000D1F80880B8F1000F02D14FF0040C0BE073
:10176000D1F80880B8F1010F03D14FF0080C1C61CB
:1017700002E04FF0080C5C6103E04FF0000C00E069
:1017800000BF00BFFF2801D8984601E003F104081C
:101790004646FF2802D84FEA820803E0A2F1080873
:1017A0004FEA88084746D6F800804FF00F0909FA3B
:1017B00007F928EA09080CFA07F900E088E048EA86
:1017C0000908C6F80080D1F8048008F08058B8F104
:1017D000805F7DD100BFDFF83C93D9F8189049F0C5
:1017E0000109DFF830A3CAF81890D146D9F818904B
:1017F00009F0010800BF00BF4FEABA384FEA92096A
:1018000058F829504FEA82784FEA18794FF00F08BC
:1018100008FA09F825EA0805DFF8FC82434502D1F9
:101820004FF0000816E0DFF8F482434502D14FF094
:1018300001080FE0DFF8E882434502D14FF00208CB
:1018400008E0DFF8E082434502D14FF0030801E0F1
:101850004FF004084FEA82794FEA197908FA09F83B
:1018600048EA0505DFF8C0824FEA920948F8295096
:10187000D1F8048008F48038B8F5803F0AD1DFF849
:10188000AC82D8F8008048EA0008DFF8A092C9F8D6
:10189000008009E0DFF89482D8F8008028EA000888
:1018A000DFF88892C9F80080D1F8048008F4003885
:1018B000B8F5003F10D1DFF8748208F10408D8F8B9
:1018C000008048EA0008DFF8649209F1040900E0AA
:1018D00058E0C9F800800DE0DFF8508208F10408F4
:1018E000D8F8008028EA0008DFF8409209F10409DE
:1018F000C9F80080D1F8048008F48018B8F5801F7A
:101900000ED1DFF8288208F10808D8F8008048EAEC
:101910000008DFF8189209F10809C9F800800DE005
:10192000DFF8088208F10808D8F8008028EA0008E3
:10193000DFF8F89109F10809C9F80080D1F80480AE
:1019400008F40018B8F5001F0ED1DFF8E08108F1A7
:101950000C08D8F8008048EA0008DFF8D09109F1B7
:101960000C09C9F800800DE0DFF8C08108F10C080F
:10197000D8F8008028EA0008DFF8B09109F10C09D6
:10198000C9F80080521C102AFFF490AEBDE8F08721
:101990002DE9F04102460B460020002100240026DC
:1019A0007FE00127874007EA0301002978D0FF295B
:1019B00001D8174600E0171D3D46FF2901D88700D2
:1019C00002E0A0F10807BF003E462F684FF00F0C61
:1019D0000CFA06FC27EA0C074FF0040C0CFA06FC84
:1019E00047EA0C072F60D7688F43D7604E4F4FEA06
:1019F000900C57F82C4087074FEA177C0F2707FAFF
:101A00000CF73C40444FBA4201D100270FE0434F4E
:101A1000BA4201D101270AE0414FBA4201D102275F
:101A200005E0404FBA4201D1032700E004274FEA06
:101A3000807C4FEA1C7C07FA0CF7A74230D187075D
:101A40004FEA177C0F2707FA0CF4374F4FEA900C38
:101A500057F82C70A743DFF8D0C04FEA90084CF835
:101A60002870324F3F688F43DFF8C0C0CCF8007059
:101A70000CF104073F688F430CF1040CCCF80070A4
:101A80000CF104073F688F430CF1040CCCF8007094
:101A90000CF104073F688F430CF1040CCCF8007084
:101AA000401C33FA00F77FF47CAFBDE8F0810246BA
:101AB00093680B4201D0012000E0002070470AB17A
:101AC000016101E00B0403617047C2684A40C260D3
:101AD000704702464FF480330B43936191619361E9
:101AE0009369906910F4803F01D000207047012075
:101AF000FCE7704710B504460C48143000682042DB
:101B000005D00A48143004602046FFF7F2FF10BDEC
:101B1000000011100010024000080140000C0140BC
:101B20000010014000140140080001400004014081
:101B3000704770B50446002600250CB9012070BD21
:101B400094F83D0028B9002084F83C002046FEF7B8
:101B500060FC242084F83D002068006820F001002B
:101B60002168086003F047FF0546F849606888422D
:101B700006D8F748854201D2012007E0002005E0A1
:101B8000F448854201D2012000E00020012800D164
:101B9000D5E7F148B5FBF0F620684660EB49606890
:101BA000884201D8701C07E04FF4967070434FF4E0
:101BB0007A71B0FBF1F0401C21680862E34960686B
:101BC000884214D8681E61684900B0FBF1F0401CDF
:101BD000C0F30B00042801D204203DE0681E6168B8
:101BE0004900B0FBF1F0401CC0F30B0034E0A068EA
:101BF00038B9681E616801EB4101B0FBF1F0401C8F
:101C00000AE0681E616801EBC10202EB0111B0FB42
:101C1000F1F0401C40F480400005000D01D101208E
:101C20001AE0A06848B9681E616801EB4101B0FB89
:101C3000F1F0401CC0F30B000CE0681E616801EB82
:101C4000C10202EB0111B0FBF1F0401CC0F30B002C
:101C500040F4804040F400402168C861D4E90701A5
:101C6000084321680860D4E90310084321688860AC
:101C7000D4E9050108432168C8602068006840F085
:101C800001002168086000202064202084F83D00C5
:101C90000020206384F83E0000BF50E7704710B575
:101CA00004460CB9012010BD242084F83D002068B2
:101CB000006820F00100216808602046FEF7D1FB93
:101CC0000020206484F83D00206384F83E0000BFBB
:101CD00084F83C0000BF00BFE5E7014608684069A2
:101CE000C0F3802088B16FF480600A6850610420DE
:101CF000086400200863202081F83D0000BF002018
:101D000081F83C0000BF012070470020FCE770B55F
:101D100004460D4616461DE02046FFF7DEFF08B1DB
:101D2000012070BD681C15D025B1FEF7C3FE801BD5
:101D3000A8420FD9206C40F02000206400202063CE
:101D4000202084F83D0000BF002084F83C0000BF44
:101D50000320E6E720684069C0F380000028DBD05C
:101D60000020DEE770B504460D4616461DE020460D
:101D7000FFF7B3FF08B1012070BD681C15D025B175
:101D8000FEF798FE801BA8420FD9206C40F020007F
:101D9000206400202063202084F83D0000BF002044
:101DA00084F83C0000BF0320E6E720684069C0F3E8
:101DB000C0100028DBD00020DEE72DE9F04104460A
:101DC0000D4616461F4631E020684069C0F380206A
:101DD000C0B12068006840F40070216808606FF4AA
:101DE0008060216848610420206400202063202056
:101DF00084F83D0000BF002084F83C0000BF0120B3
:101E0000BDE8F081701C11D026B1FEF753FEC01B57
:101E1000B0420BD900202063202084F83D0000BF91
:101E2000002084F83C0000BF0320E9E7C5F3074029
:101E300001280AD120684069A9B20840A9B28842A5
:101E400001D101200BE0002009E020688069A9B2DF
:101E50000840A9B2884201D1012000E000200028FA
:101E6000B2D00020CCE72DE9F04104460D461746DC
:101E70001E46DDF8188017E0701C15D02EB1FEF755
:101E800019FEA0EB0800B0420ED9002020632020EC
:101E900084F83D00002084F83E0000BF84F83C0038
:101EA00000BF0320BDE8F081C5F3074001280AD137
:101EB00020684069A9B20840A9B2884201D1012036
:101EC0000BE0002009E020688069A9B20840A9B2AF
:101ED000884201D1012000E00020B842CCD000208F
:101EE000E0E72DE9F84304460D4617469846E66AB2
:101EF000042E04D0012E02D016F5803F06D12068B2
:101F0000006840F480702168086008E0206B1228A7
:101F100005D12068006840F48070216808603B4665
:101F200000224FF001112046CDF80080FFF79BFF03
:101F300010B10320BDE8F8832069B0F5804F0DD1C2
:101F400005F0FE002168086120E00000A086010085
:101F500080841E0000093D0040420F0005F44070DF
:101F6000F02141EAE0102168086143463A46FE4903
:101F70002046FFF722FF30B1206C042801D1012058
:101F8000D8E70320D6E7E8B22168086143463A461D
:101F9000F549891F2046FFF710FF30B1206C042857
:101FA00001D10120C6E70320C4E70020C2E72DE9E4
:101FB000F8430446894616461F46DDF82080002572
:101FC000FEF778FD054694F83D0020287ED11923C0
:101FD0000122E64920460095FFF745FF10B1022097
:101FE000BDE8F88300BF94F83C00012801D102202D
:101FF000F6E7012084F83C0000BF2068006810F07C
:10200000010F05D12068006840F0010021680860D8
:102010002068006820F4006021680860212084F8AE
:102020003D00102084F83E00002020646662678531
:10203000CF48E062608D20852B46424649462046C7
:10204000FFF74FFF80B1206C042806D100BF0020AD
:1020500084F83C0000BF0120C2E700BF002084F8E4
:102060003C0000BF0320BBE700BF00202168486997
:102070002168886900BF00BF46E02A4641462046E5
:10208000FFF770FE60B1206C042807D1206800685B
:1020900040F40070216808600120A1E703209FE759
:1020A000616A481C6062087821680861608D401E82
:1020B0006085208D401E208520684069C0F3800027
:1020C00078B1208D68B1616A481C00E030E0606240
:1020D000087821680861608D401E6085208D401E53
:1020E00020852A4641462046FFF711FE60B1206C4C
:1020F000042807D12068006840F400702168086057
:1021000001206DE703206BE7208D0028B5D1206802
:10211000006840F4007021680860202084F83D00C9
:10212000002084F83E0000BF84F83C0000BF57E761
:10213000022055E770B504460D46164629E0206892
:102140004069C0F3001080B16FF010002168486151
:10215000002020642063202084F83D0000BF002080
:1021600084F83C0000BF012070BD25B1FEF7A2FC41
:10217000801BA8420DD9206C40F020002064202054
:1021800084F83D0000BF002084F83C0000BF03201D
:10219000EAE720684069C0F380100028CFD0002013
:1021A000E2E72DE9F84304460D4690461E46E76AED
:1021B0002068006840F4806021680860042F04D023
:1021C000012F02D017F5803F06D12068006840F447
:1021D00080702168086008E0206B112805D1206814
:1021E000006840F4807021680860434600224FF088
:1021F000011120460096FFF736FE10B10320BDE81E
:10220000F8832069B0F5804F05D1E8B240F00100B5
:102210002168086146E005F44070F02141EAE010D1
:1022200021680861334642464F492046FFF7C5FD05
:1022300030B1206C042801D10120E0E70320DEE763
:10224000E8B221680861334642464749891F204663
:10225000FFF7B3FD30B1206C042801D10120CEE797
:102260000320CCE700BF0020216848692168886905
:1022700000BF00BF2068006840F4807021680860DB
:10228000434600224FF0011120460096FFF7EBFD78
:1022900008B10320B3E705F44070F12141EAE010F2
:1022A00021680861334642462F49891F2046FFF7BF
:1022B00084FD30B1206C042801D101209FE7032068
:1022C0009DE700209BE72DE9F84304468946174621
:1022D0009846089E0025FEF7EDFB054694F83D0064
:1022E00020287DD119230122204920460095FFF79F
:1022F000BAFD10B10220BDE8F88300BF94F83C009D
:10230000012801D10220F6E7012084F83C0000BF3B
:102310002068006810F0010F05D12068006840F0C7
:102320000100216808602068006820F400602168CE
:102330000860222084F83D00102084F83E00002030
:1023400020646762A4F82A800948E062608D2085D5
:102350002B46324649462046FFF723FFB8B1206C92
:1023600004280DD100BF05E00800010002001000A4
:102370000000FFFF002084F83C0000BF0120BAE706
:1023800000BF002084F83C0000BF0320B3E7208D8D
:1023900070B900BF0020216848692168886900BFC2
:1023A00000BF2068006840F400702168086043E0C6
:1023B000208D012818D12068006820F480602168F1
:1023C000086072B600BF00202168486921688869EA
:1023D00000BF00BF2068006840F40070216800E082
:1023E00002E1086062B627E0208D022816D120683D
:1023F000006840F400602168086072B600BF0020E9
:10240000216848692168886900BF00BF20680068AA
:1024100020F480602168086062B60DE020680068E2
:1024200040F480602168086000BF0020216848698E
:102430002168886900BF00BFC7E0208D032875D8D8
:10244000208D01281AD12A4631462046FFF772FE18
:1024500030B1206C202801D103204CE701204AE74D
:1024600020680069C1B2626A501C60621170208DE0
:10247000401E2085608D401E6085A6E0208D0228CC
:102480002CD133460022F94920460095FFF7EBFC9A
:1024900008B103202FE772B62068006840F400708E
:1024A0002168086020680069C1B2626A501C6062DD
:1024B0001170208D401E2085608D401E608562B6A3
:1024C00020680069C1B2626A501C60621170208D80
:1024D000401E2085608D401E608576E033460022D8
:1024E000E24920460095FFF7BEFC08B1032002E751
:1024F0002068006820F480602168086072B6206857
:102500000069C1B2626A501C60621170208D401E69
:102510002085608D401E608533460022D3492046C9
:102520000095FFF7A0FC10B10320E4E621E020684D
:10253000006840F400702168086020680069C1B23A
:10254000626A501C60621170208D401E2085608D73
:10255000401E608562B620680069C1B2626A501C84
:1025600060621170208D401E2085608D401E608548
:102570002BE02A4631462046FFF7DCFD30B1206CC7
:10258000202801D10320B6E60120B4E620680069C6
:10259000C1B2626A501C60621170208D401E20859D
:1025A000608D401E608520684069C0F3800060B186
:1025B00020680069C1B2626A501C60621170208D8F
:1025C000401E2085608D401E6085208D00287FF490
:1025D00034AF202084F83D00002084F83E0000BF86
:1025E00084F83C0000BF86E6022084E62DE9F8432B
:1025F00004460E46174698460025FEF75BFA054648
:1026000094F83D00202870D106B117B90120BDE82B
:10261000F88300BF94F83C00012801D10220F6E7BE
:10262000012084F83C0000BF2068006810F0010F12
:1026300005D12068006840F001002168086020682A
:10264000006820F4006021680860212084F83D00C3
:10265000202084F83E00002020646662678584485C
:10266000E062608D20852068006840F48060216809
:102670000860434600227D49891E20460095FFF7E9
:10268000F2FB08B10320C2E700BF002021684869BF
:102690002168886900BF00BF2069B0F5404F12D1A2
:1026A000434600227149891E20460095FFF7DBFB57
:1026B00008B10320ABE700BF00202168486921680A
:1026C000886900BF00BF32E02A4641462046FFF736
:1026D00049FB68B12068006820F4806021680860C8
:1026E000206C042802D1012091E743E003208EE70B
:1026F000616A481C6062087821680861608D401E2C
:102700006085208D401E208520684069C0F38000D0
:1027100068B1208D58B1616A481C606208782168F0
:102720000861608D401E6085208D401E2085208DB3
:102730000028C9D1434600224FF48231204600953B
:10274000FFF791FB08B1032061E76FF48060216817
:1027500048612068006820F48060216808602020BB
:1027600084F83D00002084F83E0000BF84F83C005F
:1027700000BF4CE702204AE770B504460D461646F6
:102780001BE02046FFF7A9FA08B1012070BD25B172
:10279000FEF790F9801BA8420FD9206C40F0200072
:1027A000206400202063202084F83D0000BF00202A
:1027B00084F83C0000BF0320E8E720684069C0F3CC
:1027C00000100028DDD00020E0E72DE9F8430446A2
:1027D0000D4616461F464FF00008FEF76BF980467F
:1027E00094F83D0020287DD105B116B90120BDE83F
:1027F000F88300BF94F83C00012801D10220F6E7DD
:10280000012084F83C0000BF2068006810F0010F30
:1028100005D12068006840F0010021680860206848
:10282000006820F4006021680860222084F83D00E0
:10283000202084F83E0000202064656266850C48F4
:10284000E062608D20852068006840F48060216827
:1028500008603B4600220549891E2046CDF80080CD
:10286000FFF701FB30B10320C1E7000004000100C5
:102870000000FFFF00BF00202168486921688869C7
:1028800000BF00BF35E0424639462046FFF752FC04
:1028900060B12068006820F4806021680860206CC6
:1028A000202801D10320A2E70120A0E720680069C9
:1028B000C1B2626A501C60621170208D401E20857A
:1028C000608D401E608520684069C0F3800080B143
:1028D000208D70B120680069C1B2626A501C6062CC
:1028E000117000E038E0208D401E2085608D401E74
:1028F0006085208D0028C6D1424639462046FFF724
:102900003BFF60B12068006820F4806021680860A7
:10291000206C042801D1012069E7032067E700BF8C
:102920000020216848692168096841F00101226896
:10293000116000BF00BF2068006820F4806021683B
:102940000860202084F83D00002084F83E0000BF8D
:1029500084F83C0000BF4AE7022048E770B504460F
:102960000D46002194F83D00202860D1F74800680A
:102970001926B0FBF6F04FF47A76B0FBF6F000EBD8
:10298000C00606EB001100BF0800A1F101010AD149
:102990002063202084F83D0000BF002084F83C0024
:1029A00000BF032070BD20688069C0F3400000288C
:1029B000EAD100BF94F83C00012801D10220F1E7E0
:1029C000012084F83C0000BF2068006810F0010F6F
:1029D00005D12068006840F001002668306020685A
:1029E000006820F4006026683060212084F83D00F3
:1029F000102084F83E000020206462626385D44881
:102A0000E062608D208565642068006840F4807015
:102A10002668306000BF002084F83C0000BF2068BA
:102A2000406840F4E060266870600020BAE7022049
:102A3000B8E770B504460D46002194F83D00202803
:102A400066D1C24800681926B0FBF6F04FF47A76DA
:102A5000B0FBF6F000EBC00606EB001100BF08006B
:102A6000A1F101010AD12063202084F83D0000BFBC
:102A7000002084F83C0000BF032070BD20688069FE
:102A8000C0F340000028EAD100BF94F83C000128C0
:102A900001D10220F1E7012084F83C0000BF20684A
:102AA000006810F0010F05D12068006840F00100B7
:102AB000266830602068006820F400602668306076
:102AC000222084F83D00102084F83E00002020647D
:102AD000626263859E48E062608D2085656420683F
:102AE000006840F48060266830602068006840F428
:102AF00080702668306000BF002084F83C0000BF72
:102B00002068406840F4E060266870600020B4E708
:102B10000220B2E7F0B504460E46059D00270021CD
:102B200094F83D0020287ED1042D01D0012D23D121
:102B3000864800684FF0190CB0FBFCF04FF47A7C2B
:102B4000B0FBFCF000EBC00C0CEB001100BF080068
:102B5000A1F101010AD12063202084F83D0000BFCB
:102B6000002084F83C0000BF0320F0BD206880698D
:102B7000C0F340000028EAD100BF94F83C000128CF
:102B800001D10220F1E7012084F83C0000BF206859
:102B9000006810F0010F07D12068006840F00100C4
:102BA000D4F800C0CCF800002068006820F4006071
:102BB000D4F800C0CCF80000212084F83D0010209B
:102BC00084F83E000020206462626385E562608DC7
:102BD00020856664276B122F00D0A7B9042D01D081
:102BE000012D08D12068006840F48070D4F800C03E
:102BF000CCF8000007E02068006840F48070D4F84A
:102C000000C0CCF8000000BF002084F83C0000BFEA
:102C10002068406840F4E060D4F800C0CCF80400BC
:102C20000020A2E7FFE702209FE7F0B504460E462A
:102C3000059D002194F83D0020287DD1042D01D070
:102C4000012D22D1414800681927B0FBF7F04FF45D
:102C50007A77B0FBF7F000EBC00707EB001100BF7D
:102C60000800A1F101010AD12063202084F83D0071
:102C700000BF002084F83C0000BF0320F0BD2068A6
:102C80008069C0F340000028EAD100BF94F83C00FE
:102C9000012801D10220F1E7012084F83C0000BFA7
:102CA0002068006810F0010F05D12068006840F02E
:102CB0000100276838602068006820F400602768F9
:102CC0003860222084F83D00102084F83E00002067
:102CD000206462626385E562608D20856664206B96
:102CE000112801D0206BF8B9042D04D0012D02D099
:102CF00015F5803F0CD12068006840F4806027689B
:102D000038602068006840F48070276838600BE005
:102D10002068006840F48060276838602068006898
:102D200040F480702768386000BF002084F83C00C1
:102D300000BF2068406800E005E040F4E0602768DC
:102D4000786000209AE7022098E700000000002049
:102D50000000FFFF30B50346002493F83D00202813
:102D600063D101B10AB9012030BDFE4800681925C0
:102D7000B0FBF5F04FF47A75B0FBF5F000EBC00551
:102D800005EB001400BF2000A4F101040AD1186370
:102D9000202083F83D0000BF002083F83C0000BFE6
:102DA0000320E1E718688069C0F340000028EAD1F9
:102DB00000BF93F83C00012801D10220D4E7012094
:102DC00083F83C0000BF1868006810F0010F05D1BF
:102DD0001868006840F001001D68286018680068E5
:102DE00020F400601D682860212083F83D00202029
:102DF00083F83E000020186459625A85DA48D86288
:102E0000588D18851868006840F480601D68286037
:102E100000BF002083F83C0000BF1868406840F401
:102E2000E0601D68686000209EE702209CE730B5E6
:102E30000346002493F83D00202862D101B10AB96D
:102E4000012030BDC74800681925B0FBF5F04FF4EC
:102E50007A75B0FBF5F000EBC00505EB001400BF80
:102E60002000A4F101040AD11863202083F83D005A
:102E700000BF002083F83C0000BF0320E1E7186892
:102E80008069C0F340000028EAD100BF93F83C00FD
:102E9000012801D10220D4E7012083F83C0000BFC3
:102EA0001868006810F0010F05D11868006840F03C
:102EB00001001D6828601868006820F400601D6823
:102EC0002860222083F83D00202083F83E00002067
:102ED000186459621A855A85A348D8621868006830
:102EE00040F480601D68286000BF002083F83C002B
:102EF00000BF1868406840F4E0601D68686000200A
:102F00009FE702209DE730B5044694F83D0028284D
:102F100041D101B10AB9012030BD00BF94F83C0095
:102F2000012801D10220F7E7012084F83C0000BF0E
:102F30002068006810F0010F05D12068006840F09B
:102F40000100256828602068006820F4006025687A
:102F50002860292084F83D00202084F83E000020CD
:102F6000206461626285E362608D208500BF00207D
:102F7000256868692568A86900BF00BF00BF0020F8
:102F800084F83C0000BF2068406840F4E060256899
:102F900068600020C0E70220BEE730B5044694F820
:102FA0003D00282841D101B10AB9012030BD00BF40
:102FB00094F83C00012801D10220F7E7012084F8B1
:102FC0003C0000BF2068006810F0010F05D12068A8
:102FD000006840F00100256828602068006820F43F
:102FE0000060256828602A2084F83D00202084F8AD
:102FF0003E000020206461626285E362608D20856E
:1030000000BF0020256868692568A86900BF00BF67
:1030100000BF002084F83C0000BF2068406840F4F6
:10302000E060256868600020C0E70220BEE7014636
:1030300091F83D0020281BD1282081F83D00086828
:10304000006810F0010F05D10868006840F0010029
:103050000A6810600868006840F480600A681060C0
:103060000868406840F440700A685060002070476B
:103070000220FCE7014691F83D0028281BD191F879
:103080003D0000F0030291F83E0010430863202049
:1030900081F83D00002081F83E000868006820F4B7
:1030A00080600B6818600868406820F440700B6806
:1030B0005860002070470220FCE7704770B5054655
:1030C0006C6A2068006820F4806021680860002035
:1030D0006085202084F83D00002084F83E00206CAC
:1030E00040F0100020642046FFF7E7FF70BD7047F6
:1030F00070472DE9F04105466C6A94F83D6094F8FC
:103100003E70212E03D0222E10D1202F0ED1206808
:10311000406820F4006021684860002060852068D5
:10312000406840F440702168486038E020680068DA
:1031300020F48060216808602068006840F4007016
:10314000216808602068406820F480502168486049
:103150002068406820F40060216848600020608595
:10316000206C03E0000000200000FFFF18B12046A3
:10317000FFF7A3FF13E0202084F83D0094F83E0001
:10318000402806D1002084F83E002046FFF7B0FF1B
:1031900005E0002084F83E002046FFF7A8FFBDE8C8
:1031A000F0812DE9F04104460E4617469846002569
:1031B00094F83D0020287DD1F94800681921B0FB22
:1031C000F1F04FF47A71B0FBF1F000EBC00101EBCC
:1031D000001500BF2800A5F101050BD120632020B8
:1031E00084F83D0000BF002084F83C0000BF0320AD
:1031F000BDE8F08120688069C0F340000028E9D173
:1032000000BF94F83C00012801D10220F0E7012022
:1032100084F83C0000BF2068006810F0010F05D161
:103220002068006840F0010021680860206800689C
:1032300020F4006021680860212084F83D001020FF
:1032400084F83E00002020646762A4F82A80D548F4
:10325000E062608D20856664208D60B3D248616B2A
:103260008862D248616B08630020616BC862616B41
:103270004863238DD4F800C00CF11002616A606BC2
:10328000FDF7BDFE2068006840F48060216808609A
:103290002068006840F480702168086000BF00204A
:1032A00084F83C0000BF2068406840F4407021680A
:1032B000486001E020E006E02068406840F40060DB
:1032C0002168486016E02068006840F4806021684A
:1032D00008602068006840F480702168086000BFC2
:1032E000002084F83C0000BF2068406840F4E060A3
:1032F0002168486000207BE7022079E72DE9F04152
:1033000004460E4617469846002594F83D002028AE
:103310007ED1A34800681921B0FBF1F04FF47A7117
:10332000B0FBF1F000EBC00101EB001500BF28007D
:10333000A5F101050BD12063202084F83D0000BFDA
:10334000002084F83C0000BF0320BDE8F081206825
:103350008069C0F340000028E9D100BF94F83C0028
:10336000012801D10220F0E7012084F83C0000BFD1
:103370002068006810F0010F05D12068006840F057
:103380000100216808602068006820F4006021685E
:103390000860222084F83D00102084F83E000020C0
:1033A00020646762A4F82A807E48E062608D2085F0
:1033B0006664208D68B37C48A16B88627B48A16BF2
:1033C00008630020A16BC862A16B4863238DD4F809
:1033D00000C00CF11001626AA06BFDF710FE2068BE
:1033E000006840F48060216808602068006840F44C
:1033F00080702168086000BF002084F83C0000BF96
:103400002068406840F4407021684860206801E00E
:103410001FE005E0406840F400602168486016E065
:103420002068006840F480602168086020680068B7
:1034300040F480702168086000BF002084F83C00E0
:1034400000BF2068406840F4E060216848600020C8
:103450007BE7022079E77047704770B505466C6AD4
:103460002068006820F48060216808600020608582
:10347000616B4863A16B486394F83D00602810D1EC
:10348000202084F83D00002084F83E00206420685D
:10349000006820F00100216808602046FFF7DCFF8B
:1034A0000EE0202084F83D00002084F83E002068D3
:1034B000006820F00100216808602046FFF7FDFD4C
:1034C00070BD70B5044694F83D50292D01D02A2DC9
:1034D00005D100202063282084F83D0011E094F8F5
:1034E0003D00602809D02068406800F40060B0F515
:1034F000006F02D0202084F83D000020206384F873
:103500003E002068006820F40060216808602068A0
:10351000406800F40060B0F5006F4BD1206840684F
:1035200020F4006021684860606B90F82100012859
:1035300014D01F48616B4863606BFDF7CBFD00281A
:1035400066D02068006820F0010021680860202013
:1035500084F83D00606B416B884759E01448A16BCB
:103560004863A06BFDF7B6FD002851D02068406984
:10357000C0F3801030B120680069C1B2626A501C8B
:10358000606211702068006820F001002168086006
:10359000202084F83D00A06B416B884738E0000094
:1035A000000000200000FFFFF3300008BD300008DD
:1035B0005B34000894F83D0060281AD1202084F87C
:1035C0003D000020206420684069C0F3801030B1C5
:1035D00020680069C1B2626A501C60621170206884
:1035E000006820F00100216808602046FFF734FFE2
:1035F0000EE020684069C0F3801030B12068006997
:10360000C1B2626A501C606211702046FFF755FD1E
:1036100094F83D00282811D1206C00F00400042803
:103620000CD1FE48E06200202063202084F83D0099
:10363000002084F83E002046FFF70DFF70BD70B5F6
:1036400004460D4694F83E0010282DD100BF94F892
:103650003C00012801D1022070BD012084F83C000B
:1036600000BF00202063602084F83D0020680068CF
:1036700020F48060216808602068006840F40070D1
:1036800021680860002060852068406820F4E060C0
:103690002168486000BF002084F83C0000BF20463D
:1036A000FFF70FFF0020D7E70120D5E72DE9F04114
:1036B00004460D461646002794F83D0020287DD18B
:1036C00005B116B90120BDE8F081D548006819217F
:1036D000B0FBF1F04FF47A71B0FBF1F000EBC001F8
:1036E00001EB001700BF3800A7F101070AD12063E2
:1036F000202084F83D0000BF002084F83C0000BF7B
:103700000320E0E720688069C0F340000028EAD188
:1037100000BF94F83C00012801D10220D3E701202A
:1037200084F83C0000BF2068006810F0010F05D14C
:103730002068006840F00100216808602068006887
:1037400020F4006021680860212084F83D002020DA
:1037500084F83E000020206465626685AF48E06220
:10376000608D2085AF48616B8862AF48616B0863EC
:103770000020616BC862616B4863238DD4F800C080
:103780000CF11002616A606BFDF739FC206800687B
:1037900040F480602168086000BF002084F83C008D
:1037A00000BF2068406840F440702168486020688D
:1037B000406840F400602168486000E001E00020BB
:1037C00081E702207FE72DE9F04104460D461646C9
:1037D000002794F83D0020287FD105B116B90120BB
:1037E000BDE8F0818E4800681921B0FBF1F04FF47C
:1037F0007A71B0FBF1F000EBC00101EB001700BFE4
:103800003800A7F101070AD12063202084F83D0089
:1038100000BF002084F83C0000BF0320E0E72068E0
:103820008069C0F340000028EAD100BF94F83C0052
:10383000012801D10220D3E7012084F83C0000BF19
:103840002068006810F0010F05D12068006840F082
:103850000100216808602068006820F40060216889
:103860000860222084F83D00202084F83E000020DB
:103870002064656266856948E062608D20856948DC
:10388000A16B88626848A16B08630020A16BC862C5
:10389000A16B4863238DD4F800C00CF11001626A5B
:1038A000A06BFDF7ACFB2068006840F480602168E5
:1038B000086000BF002084F83C0000BF206840681A
:1038C00040F44070216848602068406840F400601F
:1038D00021684860002083E7FFE7022080E72DE9A8
:1038E000F8430446884615469946DDE9086720688E
:1038F000006840F4807021680860334600224FF071
:10390000011120460097FEF7AEFA10B10320BDE882
:10391000F88308F0FE00216808613B4632464349BF
:103920002046FEF74AFA30B1206C042801D101206C
:10393000EDE70320EBE700BF00202168486921681C
:10394000886900BF00BF3A4631462046FEF70AFAB2
:1039500060B1206C042807D12068006840F4007032
:10396000216808600120D2E70320D0E7B9F1010FF8
:1039700003D1E8B22168086118E0280A21680861CB
:103980003A4631462046FEF7EDF960B1206C042836
:1039900007D12068006840F40070216808600120A9
:1039A000B5E70320B3E7E8B2216808610020AEE77D
:1039B0002DE9FC5F04460F4690469946DDE90CABC5
:1039C0000E9E0025FDF776F8054694F83D00202868
:1039D00070D119230122164920460095FEF743FABB
:1039E00010B10220BDE8FC9F00BF94F83C00012804
:1039F00001D10220F6E7012084F83C0000BF2068D6
:103A0000006810F0010F05D12068006840F0010047
:103A100021680860206800680CE000000000FFFFDB
:103A200000000020F3300008BD3000080200010053
:103A30000200100020F4006021680860212084F852
:103A40003D00402084F83E0000202064C4F824A0FB
:103A5000A4F82AB0FC48E062608D20854B464246BF
:103A600039462046CDE90065FFF739FF80B1206C6B
:103A7000042806D100BF002084F83C0000BF0120CC
:103A8000B0E700BF002084F83C0000BF0320A9E796
:103A900032E02A4631462046FEF764F968B1206CD0
:103AA000042808D12068006840F40070216808608C
:103AB000012097E747E0032094E7616A481C6062B1
:103AC000087821680861208D401E2085608D401E89
:103AD000608520684069C0F3800068B1208D58B1CE
:103AE000616A481C6062087821680861208D401E68
:103AF0002085608D401E6085208D0028C9D12A4612
:103B000031462046FEF703F960B1206C042807D146
:103B10002068006840F4007021680860012061E7B7
:103B200003205FE72068006840F4007021680860A7
:103B3000202084F83D00002084F83E0000BF84F877
:103B40003C0000BF4EE702204CE72DE9F843044655
:103B50000F4615469946DDE908862068006840F45E
:103B60008060216808602068006840F480702168E7
:103B70000860434600224FF0011120460096FEF7F0
:103B800072F910B10320BDE8F88307F0FE00216848
:103B9000086133464246AD492046FEF70EF930B182
:103BA000206C042801D10120EDE70320EBE700BFE2
:103BB0000020216848692168886900BF00BF32463B
:103BC00041462046FEF7CEF860B1206C042807D1AC
:103BD0002068006840F40070216808600120D2E786
:103BE0000320D0E7B9F1010F03D1E8B221680861E1
:103BF00018E0280A21680861324641462046FEF74F
:103C0000B1F860B1206C042807D12068006840F446
:103C10000070216808600120B5E70320B3E7E8B22F
:103C200021680861324641462046FEF79BF860B1A4
:103C3000206C042807D12068006840F400702168D7
:103C4000086001209FE703209DE72068006840F49A
:103C5000807021680860434600224FF00111204621
:103C60000096FEF700F908B103208CE7F8B240F0A7
:103C70000100216808613346424674492046FEF738
:103C80009CF830B1206C042801D101207BE703208F
:103C900079E7002077E72DE9FC5F04460F46904660
:103CA0009946DDE90CAB0E9E0025FCF703FF0546A7
:103CB00094F83D0020287BD1192301226449204635
:103CC0000095FEF7D0F810B10220BDE8FC9F00BFC0
:103CD00094F83C00012801D10220F6E7012084F885
:103CE0003C0000BF2068006810F0010F05D120687B
:103CF000006840F00100216808602068006820F436
:103D0000006021680860222084F83D00402084F88B
:103D10003E0000202064C4F824A0A4F82AB04A4839
:103D2000E062608D20854B46424639462046CDE90B
:103D30000065FFF70AFF80B1206C042806D100BFA0
:103D4000002084F83C0000BF0120BEE700BF002037
:103D500084F83C0000BF0320B7E7208D70B900BF96
:103D60000020216848692168886900BF00BF206879
:103D7000006840F400702168086042E0208D01284E
:103D800017D12068006820F480602168086072B64E
:103D900000BF0020216848692168886900BF00BF12
:103DA0002068006840F400702168086062B628E06E
:103DB00006E1208D022816D12068006840F40060DA
:103DC0002168086072B600BF002021684869216838
:103DD000886900BF00BF2068006820F48060216807
:103DE000086062B60DE02068006840F480602168D9
:103DF000086000BF0020216848692168886900BF09
:103E000000BFCEE0208D03287CD8208D012821D151
:103E10002A4631462046FEF78DF930B1206C202825
:103E200001D1032051E701204FE720680069C1B2AA
:103E3000626A501C60621170208D401E2085608D6A
:103E4000401E6085ADE000000000FFFF02000100A1
:103E500002001000208D02282CD133460022FE499A
:103E600020460095FDF7FFFF08B103202DE772B64D
:103E70002068006840F400702168086020680069CC
:103E8000C1B2626A501C60621170208D401E208594
:103E9000608D401E608562B620680069C1B2626AAA
:103EA000501C60621170208D401E2085608D401E68
:103EB000608576E033460022E74920460095FDF70D
:103EC000D2FF08B1032000E72068006820F480607A
:103ED0002168086072B620680069C1B2626A501C2D
:103EE00060621170208D401E2085608D401E6085AF
:103EF00033460022D84920460095FDF7B4FF10B1A3
:103F00000320E2E621E02068006840F400702168A8
:103F1000086020680069C1B2626A501C606211705A
:103F2000208D401E2085608D401E608562B6206811
:103F30000069C1B2626A501C60621170208D401E1F
:103F40002085608D401E60852BE02A463146204644
:103F5000FEF7F0F830B1206C202801D10320B4E640
:103F60000120B2E620680069C1B2626A501C60623A
:103F70001170208D401E2085608D401E6085206858
:103F80004069C0F3800060B120680069C1B2626A14
:103F9000501C60621170208D401E2085608D401E77
:103FA0006085208D00287FF42DAF202084F83D000F
:103FB000002084F83E0000BF84F83C0000BF84E687
:103FC000022082E6F0B504460E46DDE905750021C3
:103FD00094F83D0020286CD1A04800684FF0190CDF
:103FE000B0FBFCF04FF47A7CB0FBFCF000EBC00CB3
:103FF0000CEB001100BF0800A1F101010AD1206300
:10400000202084F83D0000BF002084F83C0000BF61
:104010000320F0BD20688069C0F340000028EAD189
:1040200000BF94F83C00012801D10220F1E70120F3
:1040300084F83C0000BF2068006810F0010F07D131
:104040002068006840F00100D4F800C0CCF80000FF
:104050002068006820F40060D4F800C0CCF80000AC
:10406000212084F83D00402084F83E000020206498
:104070006762258565857A48E0626664A264E364C8
:10408000002020652068006840F48070D4F800C0EB
:10409000CCF8000000BF002084F83C0000BF20687E
:1040A000406840F4E060D4F800C0CCF80400002080
:1040B000AFE70220ADE7F0B504460E46DDE9057531
:1040C000002194F83D00202877D1644800684FF023
:1040D000190CB0FBFCF04FF47A7CB0FBFCF000EB69
:1040E000C00C0CEB001100BF0800A1F101010AD1C6
:1040F0002063202084F83D0000BF002084F83C00AD
:1041000000BF0320F0BD20688069C0F34000002894
:10411000EAD100BF94F83C00012801D10220F1E768
:10412000012084F83C0000BF2068006810F0010FF7
:1041300007D12068006840F00100D4F800C0CCF836
:1041400000002068006820F40060D4F800C0CCF8BB
:104150000000222084F83D00402084F83E0000202A
:1041600020646762258565853D48E0626664A264D7
:10417000E364002020652068006840F48060D4F883
:1041800000C0CCF800002068006840F48070D4F8CB
:1041900000C0CCF8000000BF002084F83C0000BF45
:1041A000208D38B12068406840F4E060D4F800C049
:1041B000CCF804000020A5E7FFE70220A2E72DE9E4
:1041C000FC5F04460F4690469B46DDE90C960025B1
:1041D000AA46FCF76FFC824694F83D0020287DD16A
:1041E0001E4800681921B0FBF1F04FF47A71B0FB62
:1041F000F1F000EBC00101EB001500BF2800A5F1B4
:1042000001050BD12063202084F83D0000BF002071
:1042100084F83C0000BF0320BDE8FC9F2068806953
:10422000C0F340000028E9D100BF94F83C00012809
:1042300001D10220F0E7012084F83C0000BF206893
:10424000006810F0010F05D12068006840F00100FF
:1042500021680860206805E00400010000000020DB
:104260000000FFFF006820F4006021680860212042
:1042700084F83D00402084F83E0000202064C4F80B
:10428000249026856685F748E062208D002849D075
:10429000F548616B8862F548616B08630020616BCB
:1042A000C862616B4863238DD4F800C00CF1100222
:1042B000616A606BFCF7A3FE23205B4642463946E9
:1042C000CDE9000A2046FFF70AFB90B1206C0428D4
:1042D00008D100BF002084F83C0000E024E000BFCB
:1042E000012099E700BF002084F83C0000BF0320B4
:1042F00092E700BF0020216848692168886900BFF3
:1043000000BF00BF002084F83C0000BF2068406868
:1043100040F48070216848602068406840F4006084
:1043200021684860002077E7022075E72DE9FC5FEF
:104330000446884691469B46DDE90CA600270025E9
:10434000FCF7B8FB074694F83D00202877D1C84811
:1043500000681921B0FBF1F04FF47A71B0FBF1F075
:1043600000EBC00101EB001500BF2800A5F101051D
:104370000BD12063202084F83D0000BF002084F88A
:104380003C0000BF0320BDE8FC9F20688069C0F3AB
:1043900040000028E9D100BF94F83C00012801D179
:1043A0000220F0E7012084F83C0000BF206800688C
:1043B00010F0010F05D12068006840F0010021686D
:1043C00008602068006820F40060216808602220EE
:1043D00084F83D00402084F83E0000202064C4F8AA
:1043E00024A066859F48E062608D2085208D00288E
:1043F00056D09D48A16B88629C48A16B0863002041
:10440000A16B4863238DD4F800C00CF11001626ADF
:10441000A06BFCF7F4FD23205B464A464146CDE9FC
:1044200000072046FFF791FB88B1206C042807D1D4
:1044300000BF002084F83C0000BF0120A3E762E039
:1044400000BF002084F83C0000BF03209BE7012E42
:1044500006D12068006820F480602168086005E0CB
:104460002068406840F480502168486000BF002008
:10447000216848692168886900BF00BF00BF00202B
:1044800084F83C0000BF2068406840F480702168D8
:1044900048602068406840F400602168486030E06F
:1044A00023205B464A464146CDE900072046FFF7F8
:1044B0004CFB80B1206C042806D100BF002084F89A
:1044C0003C0000BF01205EE700BF002084F83C00F4
:1044D00000BF032057E700BF00202168486921681A
:1044E000886900BF00BF2068006840F40070216840
:1044F0000860202084F83D0000BF002084F83C00C4
:1045000000BF00203FE702203DE72DE9FC5F0446A5
:104510000F4690461E460025A946AA46AB460120F6
:104520000190FCF7C7FA054694F83D0020287DD19C
:10453000192301224F4920460095FDF794FC10B144
:104540000220BDE8FC9F00BF94F83C00012801D187
:104550000220F6E7012084F83C0000BF20680068D4
:1045600010F0010F05D12068006840F001002168BB
:1045700008602068006820F400602168086024203A
:1045800084F83D00002020643648E06200BF2068C7
:10459000006840F4807021680860334600224FF0C4
:1045A000011120460095FDF75EFC08B10320C8E725
:1045B00007F0FE0021680861FCF77CFA05462068D8
:1045C0004069C0F3400920684069C0F3802A94F82C
:1045D0003DB012E026B1FCF76DFA401BB04202D9A3
:1045E000A02084F83D0020684069C0F3400920689D
:1045F0004069C0F3802A94F83DB0B9F1000F05D1AD
:10460000BAF1000F02D1BBF1A00FE3D1202084F852
:104610003D0020684069C0F3400010B32068006886
:1046200040F400702168086000BF00E048E000200E
:10463000216848692168886900BF00BF19230122E9
:104640000C4920460095FDF70EFC08B1032078E7E1
:10465000202084F83D0000BF002084F83C0000BF0B
:104660006FE709E00000FFFFF3300008BD300008ED
:1046700000000020020010002068006840F4007074
:10468000216808606FF48060216848611923012265
:10469000FE4920460095FDF7E6FB08B1032050E7F0
:1046A0000198411C01914045FFF471AF202084F82E
:1046B0003D0000BF002084F83C0000BF012040E71F
:1046C00002203EE70146488D48B108680069C2B241
:1046D0004B6A581C48621A70488D401E488500205D
:1046E0007047704770B5044694F83D50608DD8B15E
:1046F00020680069C1B2626A501C60621170608DEE
:10470000401E6085608D78B92A2D0DD120684068E3
:1047100020F480602168486022202063282084F8EB
:104720003D002046FFF7DDFF002070BD0146488DAB
:1047300040B14A6A501C486210780A681061488D7E
:10474000401E488500207047704770B5044694F8B5
:104750003D50608DD0B1616A481C60620878216864
:104760000861608D401E6085608D78B9292D0DD15E
:104770002068406820F48060216848602120206320
:10478000282084F83D002046FFF7DEFF002070BDA2
:1047900070B5044694F83D502068406820F4E0600D
:1047A0002168486000BF00202168486921680968C5
:1047B00041F001012268116000BF00BF206800685D
:1047C00020F48060216808602068406800F4006080
:1047D000B0F5006F10D194F83D00222803D094F872
:1047E0003D002A2804D1A06B00684068608503E082
:1047F000606B006840686085608D08B32068406920
:10480000C0F3800048B120680069C1B2626A501CE0
:1048100060621170608D401E608520684069C0F341
:10482000801048B120680069C1B2626A501C6062A1
:104830001170608D401E6085206C40F00400206483
:10484000206C18B12046FEF73CFE23E0282D03D053
:104850002A2D01D0292D0DD18D48E0620020206342
:10486000202084F83D00002084F83E002046FEF71A
:10487000F2FD0FE0206B222801D0222D0AD100206A
:104880002063202084F83D00002084F83E0020466C
:10489000FFF727FF002070BD704770B50446002564
:1048A000002620688069C0F3800000B901252068D7
:1048B0008069C0F3C01010B9A08986B201E0208BD6
:1048C00086B2324629462046FFF7E6FF002070BD3B
:1048D00070B50446E56A608D032817D1042D04D015
:1048E000082D02D015F5803F05D12068006820F41E
:1048F00080602168086020680069C1B2626A501C4B
:1049000060621170608D401E608560E0608D0228DD
:1049100053D1042D1AD0082D18D015F5803F15D08D
:10492000022D06D02068006820F4806021680860AD
:1049300005E02068006840F4806021680860206815
:10494000406820F44070216848600BE020684068AF
:1049500020F44070216848602068006840F40070CE
:104960002168086020680069C1B2626A501C6062F8
:104970001170608D401E608520680069C1B2626A56
:10498000501C60621170608D401E6085202084F88C
:104990003D000020206394F83E00402806D100200E
:1049A00084F83E002046FEF7A3FB10E0002084F8C8
:1049B0003E002046FEF79BFB09E020680069C1B27B
:1049C000626A501C60621170608D401E608500201C
:1049D00070BD70B5044694F83D0022286CD10025C6
:1049E000658D032D0AD920680069C1B2626A501C26
:1049F00060621170608D401E60855CE0022D01D008
:104A0000032D1CD1E06A02280CD02068006820F435
:104A10008060216808602068006840F400602168B8
:104A2000086005E02068006840F480602168086044
:104A30002068406820F48060216848603BE0E06ABC
:104A4000022806D02068006820F480602168086091
:104A500005E02068006840F48060216808602068F4
:104A6000406820F4E0602168486020680069C1B2B5
:104A7000626A501C60621170608D401E608520204B
:104A800084F83D000020206304E0000002001000D4
:104A90000000FFFF94F83E00402806D1002084F873
:104AA0003E002046FEF724FB05E0002084F83E008F
:104AB0002046FEF71CFB00BF002070BD704770470A
:104AC00070B50446E56A94F83D00212846D1608D12
:104AD00048B1616A481C6062087821680861608D8D
:104AE000401E60853AE0042D16D0082D14D015F52F
:104AF000803F11D02068406820F4E0602168486061
:104B000011202063002084F83E00202084F83D001E
:104B10002046FFF7D3FF21E02068406820F4E060E2
:104B2000216848602068006840F4007021680860CF
:104B300000202063202084F83D0094F83E004028A7
:104B400006D1002084F83E002046FFF7B8FF05E0BC
:104B5000002084F83E002046FFF7B0FF002070BD23
:104B60002DE9F041044694F83D5094F83E70E66A11
:104B7000208DB0BB212D3CD1042E16D0082E14D090
:104B800016F5803F11D02068406820F4E06021686D
:104B9000486011202063002084F83E00202084F823
:104BA0003D002046FFF78AFF7CE02068406820F443
:104BB000E060216848602068006840F40070216867
:104BC000086000202063202084F83D0094F83E0017
:104BD000402807D1002084F83E002046FFF76FFFF1
:104BE00060E006E0002084F83E002046FFF766FF04
:104BF00058E0212D03D0402F54D1222D52D1608D69
:104C000030B92068406820F480602168486049E03D
:104C100094F83E0040283CD1206D98B9E06C012802
:104C200007D1A06CC0B221680861206D801C20658E
:104C300038E0A06CC0F3072021680861206D401C9B
:104C400020652FE0206D012807D1A06CC0B221683B
:104C50000861206D401C206524E0206D022821D1D0
:104C600094F83D00222806D12068006840F4807046
:104C70002168086016E094F83D00212812D1616A8D
:104C8000481C6062087821680861608D401E60855C
:104C900008E0616A481C6062087821680861608DDC
:104CA000401E60850020BDE8F08130B5014691F8D6
:104CB0003E30CA6A0C6B91F83D00222874D1086D11
:104CC00048B9402B07D100BF00200D6868690D6806
:104CD000A86900BFE9E0086DA8B90869B0F5404FC0
:104CE00011D100BF00200D6868690D68A86900BF78
:104CF00000BF0868006840F480700D682860086D87
:104D0000401C0865D1E0488D70B900BF00200D68D7
:104D100068690D68A86900BF00BF0868006840F4B2
:104D200000700D682860B5E0488D012860D112F54B
:104D3000803F29D10868006820F480600D682860F1
:104D40000868406800F40060B0F5006F0DD1086895
:104D5000006820F480600D68286000BF00200D68A6
:104D600068690D68A86900BF94E000BF00200D6865
:104D700068690D68A86900BF00BF0868006840F452
:104D800000700D68286085E0042A1CD0082A1AD01B
:104D9000122C18D0C86A022807D00868006820F4CE
:104DA00080600D68286006E077E00868006840F4DD
:104DB00080600D68286000BF00200D6868690D687C
:104DC000A86900BF66E00868006820F480600D688C
:104DD000286000BF00200D6868690D68A86900BFE1
:104DE00000BF0868006840F400700D68286051E05A
:104DF000488D022833D1C86A022814D00868006898
:104E000040F400600D68286000BF00200D686869EC
:104E10000D68A86900BF00BF0868006820F48060C2
:104E20000D6828600DE00868006840F480600D6837
:104E3000286000BF00200D6868690D68A86900BF80
:104E400000BF0868406800F40060B0F5006F21D131
:104E50000868406840F480500D6868601AE008688F
:104E6000006840F480600D6828600868406800F4BD
:104E70000060B0F5006F05D10868406840F48050CC
:104E80000D68686000BF00200D6868690D68A8693A
:104E900000BF00BF0020086507E000BF00200D68CC
:104EA00068690D68A86900BF00BF002030BD0146D9
:104EB000486CC0B20A68106100207047014691F842
:104EC0003E0040280ED1086D28B9486C00F0FE0065
:104ED0000A68106131E0486CC0B240F001000A6815
:104EE00010612AE00869B0F5804F10D191F83D00BB
:104EF000212805D1486C00F0FE000A6810611CE012
:104F0000486CC0B240F001000A68106115E0086DFD
:104F100040B9486C00F44070F02242EAE0100A68A0
:104F200010610AE0086D012807D1486C00F4407058
:104F3000F12242EAE0100A681061002070472DE972
:104F4000F0410646306887693068446930684568D2
:104F500096F83E80B8F1100F02D0B8F1400F54D14E
:104F600014F0011F06D015F4007F03D03046FFF780
:104F7000A5FF13E0B448044206D015F4007F03D027
:104F80003046FFF794FF09E0AF48801F044205D088
:104F900015F4007F02D03046FFF787FEAB4807428A
:104FA00019D0A948783004420AD015F4806F07D090
:104FB000A548001F044203D13046FFF7D1FD70E041
:104FC000A148001F04426CD015F4007F69D0304620
:104FD000FFF776FD65E09C48383004420AD015F4AE
:104FE000806F07D09848001F044203D13046FFF776
:104FF000F0FC56E09448001F044252D015F4007FA4
:105000004FD03046FFF764FC4BE08F48801F0442CE
:1050100006D015F4007F03D03046FFF73EFC40E099
:1050200089480830044206D015F4007F03D030468A
:10503000FFF7AEFB35E08548074219D0824878304B
:1050400004420AD015F4806F07D07F48001F044245
:1050500003D13046FFF779FB23E07B48001F044271
:105060001FD015F4007F1CD03046FFF75FFB18E01F
:105070007548383004420AD015F4806F07D0724862
:10508000001F044203D13046FFF72CFB09E06E48B5
:10509000001F044205D015F4007F02D03046FFF710
:1050A00011FBBDE8F08170B5044694F83D50E66A06
:1050B000042E01D0082E1FD1282D1DD16448E06296
:1050C0002068406820F4E060216848606FF48060E8
:1050D000216848612068006820F4806021680860C9
:1050E00000202063202084F83D00002084F83E004A
:1050F0002046FEF7B0F923E0212D1DD15448E0628F
:1051000021202063202084F83D00002084F83E0008
:105110002068406820F4E060216848606FF4806097
:10512000216848612068006820F480602168086078
:105130002046FFF709FB03E06FF4806021684861B7
:10514000002070BD2DE9F04704464FF00008C1462D
:105150000027BA4620684569206846683A48F83012
:10516000054210D016F4807F0DD0206C40F0010075
:1051700020646FF48070216848612068006840F402
:1051800000402168086015F4813F0AD016F4807F42
:1051900007D0206C40F0020020646FF4007021689A
:1051A000486115F4823F2FD016F4807F2CD094F8FC
:1051B0003E80B4F82A9094F83D70D4F830A0B8F14D
:1051C000200F0FD1B9F1000F0CD1212F06D0292FBC
:1051D00004D0282F06D1BAF1210F03D12046FFF7C2
:1051E00062FF11E0206C40F00400206494F83E005F
:1051F000102805D12068006840F40070216808601C
:105200006FF480602168486115F4843F0AD016F479
:10521000807F07D0206C40F0080020646FF40060AD
:1052200021684861206C10B12046FEF74AF9BDE8BC
:10523000F087014691F83D007047014691F83E0025
:1052400070470146086C7047080001000400100018
:105250000000FFFF10B5FBF72DFC0446FE48006878
:1052600040F00100FC49086006E0FBF723FC001B4E
:10527000022801D9032010BDF748006810F0020F82
:10528000F3D0F548006820F0F80040F08000F249C3
:105290000860FBF70FFC04460020EF49486008E077
:1052A000FBF708FC001B41F28831884201D903203A
:1052B000E1E7E948406810F00C0FF1D1E748E84910
:1052C00008600020FBF7ADFB08B10120D3E7FBF736
:1052D000F1FB0446E048006820F08070DE49086079
:1052E00006E0FBF7E7FB001B022801D90320C2E719
:1052F000D948006810F0007FF3D10020D6494860FB
:10530000FBF7D8FB0446D448006820F41020D249AB
:10531000086006E0FBF7CEFB001B642801D90320E0
:10532000A9E7CD48006810F4003FF3D1CA480068EF
:1053300020F48020C84908600846406A40F0807028
:1053400048620020886000BF95E7C54A1268D2080D
:105350004FF47A73B2FBF3F202FB00F100BF00BF1F
:105360000A00A1F10101FAD1704770B50446002589
:10537000207810F0010F75D0B748406800F00C009D
:1053800004280CD0B448406800F00C00082810D164
:10539000B148406800F48030B0F5803F09D1AE4894
:1053A000006810F4003F5DD0606800285AD10120E9
:1053B00070BD00BF6068B0F5803F06D1A6480068A8
:1053C00040F48030A449086028E0606858B9A248D9
:1053D000006820F48030A04908600846006820F486
:1053E000802008601AE06068B0F5A02F0BD19A48C1
:1053F000006840F48020984908600846006840F43E
:10540000803008600AE09448006820F480309249B7
:1054100008600846006820F48020086000BF6068CB
:1054200080B1FBF747FB054606E0FBF743FB401B5B
:10543000642801D90320BBE78748006810F4003FC7
:10544000F3D00FE0FBF736FB054606E0FBF732FB37
:10545000401B642801D90320AAE77F48006810F4A4
:10546000003FF3D1207800F00200022855D17A489D
:10547000406810F00C0F0AD07748406800F00C002C
:10548000082818D17448406810F4803F13D172483E
:10549000006810F0020F04D02069012801D001201B
:1054A00086E76D48006820F0F800616940EAC100B5
:1054B0006949086031E02069E0B10120694908606C
:1054C000FBF7F8FA054606E0FBF7F4FA401B022862
:1054D00001D903206CE76048006810F0020FF3D098
:1054E0005D48006820F0F800616940EAC1005A494F
:1054F000086012E000205B490860FBF7DBFA054614
:1055000006E0FBF7D7FA401B022801D903204FE73A
:105510005148006810F0020FF3D1207800F0080025
:1055200008282BD1A069B0B101204F490860FBF7D2
:10553000C1FA054606E0FBF7BDFA401B022801D977
:10554000032035E74448406A10F0020FF3D00120F1
:10555000FFF7FBFE12E0002043490860FBF7AAFAC0
:10556000054606E0FBF7A6FA401B022801D90320F6
:105570001EE73948406A10F0020FF3D1207800F09E
:105580000400042874D100263348C06910F0805FFD
:105590000DD100BF3049C96941F080512E4AD16117
:1055A0001146C96901F0805000BF00BF01262F4895
:1055B000006810F4807F15D12C48006840F480709A
:1055C0002A490860FBF776FA054606E0FBF772FA0F
:1055D000401B642801D90320EAE62448006810F43F
:1055E000807FF3D000BFE068012806D11A48006A26
:1055F00040F001001849086227E0E06858B91648F1
:10560000006A20F00100144908620846006A20F090
:105610000400086219E0E06805280BD10E48006A12
:1056200040F004000C4908620846006A40F001009E
:1056300008620AE00848006A20F001000649086292
:105640000846006A20F00400086200BFE068F8B174
:10565000FBF730FA054615E00010024000127A0010
:1056600000000020000042428004424200700040DE
:1056700029E0FBF71FFA401B41F28831884201D92B
:10568000032095E6FA48006A10F0020FF1D011E00D
:10569000FBF710FA054608E0FBF70CFA401B41F255
:1056A0008831884201D9032082E6F148006A10F06F
:1056B000020FF1D1012E05D1ED48C06920F08050D4
:1056C000EB49C86100BFE069C0B3E948406800F039
:1056D0000C00082854D0E06902283DD10020E5499B
:1056E0000866FBF7E7F9054606E0FBF7E3F9401B20
:1056F000022801D903205BE6DD48006810F0007F36
:10570000F3D1206AB0F5803F07D1D948406820F432
:105710000030A1680843D6494860D4E9080108432D
:10572000D349496821F474110843D14948600120E4
:10573000D0490866FBF7BEF9054607E022E0FBF713
:10574000B9F9401B022801D9032031E6C848006896
:1057500010F0007FF3D015E00020C6490866FBF783
:10576000A9F9054606E0FBF7A5F9401B022801D977
:1057700003201DE6BE48006810F0007FF3D101E071
:10578000012015E6002013E6F0B585B00FF2E82CF5
:105790009CE8E01001A8A0E8E010BBA52D680095EA
:1057A00000210022002300240020B14D696811F07F
:1057B0000C051ED0042D02D0082D19D101E0B348EC
:1057C00019E001ADC1F38346AC5D11F4803F0AD00E
:1057D000A74D6D68C5F340451DF80520AB4D6543E9
:1057E000B5FBF2F302E0AA4D04FB05F3184602E014
:1057F00000BFA64800BF00BF05B0F0BD70B50446AD
:105800000D460026A348006800F00700A8420ED20B
:10581000A048006820F0070028439E490860084619
:10582000006800F00700A84201D0012070BD207878
:1058300000F00200022807D18D48406820F0F000F7
:10584000A16808438A494860207810F0010F5CD0B5
:105850006068012806D18648006810F4003F12D124
:105860000120E3E76068022806D18148006810F053
:10587000007F08D10120D9E77D48006810F0020FB1
:1058800001D10120D2E77A48406820F00300616826
:10589000084377494860FBF70DF906466068012820
:1058A00010D108E0FBF706F9801B41F288318842ED
:1058B00001D90320BAE76E48406800F00C000428C4
:1058C000F0D122E06068022810D108E0FBF7F2F87E
:1058D000801B41F28831884201D90320A6E7644841
:1058E000406800F00C000828F0D10EE008E0FBF75B
:1058F000E1F8801B41F28831884201D9032095E705
:105900005B48406810F00C0FF1D16248006800F06D
:105910000700A8420ED95F48006820F0070028431E
:105920005C4908600846006800F00700A84201D002
:1059300001207BE7207800F00400042807D14C48C0
:10594000406820F4E060E1680843494948602078F5
:1059500000F00800082808D14548406820F460504D
:10596000216940EAC10042494860FFF70DFF404904
:105970004968C1F30311484A515CC840474908606F
:105980000020FBF74EF8002050E77FB505460C4697
:105990001646002000900190029003900220019092
:1059A00003200390002002904FF48070009000BF0D
:1059B0002F49896941F004012D4A91611146896995
:1059C00001F0040000BF00BF69463548FBF764FEE4
:1059D0002748406820F0E0602043254948607FBDAB
:1059E00001202449C864704700202249C8647047D8
:1059F0002A480068704700B5FFF7FAFF1C4949685C
:105A0000C1F30221274A515CC84000BD00B5FFF731
:105A1000EFFF17494968C1F3C221224A515CC840CF
:105A200000BD0F2101601249096801F48021B1F520
:105A3000802F03D14FF4A02141600CE00C4909688C
:105A400001F48031B1F5803F03D14FF480314160E2
:105A500001E0002141600649496801F4003181609C
:105A60000349096811F0010F1ED0012101611DE0F9
:105A70000010024000004242020304050607080924
:105A80000A0B0C0D0E0F10100102000000127A001C
:105A900000093D000020024004000020000000201A
:105AA000000801401400002000210161314909680B
:105AB000C1F3C40141612F49096A01F004010429BD
:105AC00002D10521C16009E02A49096A11F0010FDC
:105AD00002D00121C16001E00021C1602549496A6D
